:0600000040C0FECFFDCF61
:10000600FCCFFBCFFACFF9CFF8CFF7CFF6CFF5CFAE
:10001600F4CFF3CFF2CFF1CFF0CFEFCFEECFEDCFDE
:100026001027E80364000A00010000100001100018
:100036000100456C656374724F2D634F6E74724F89
:100046006C0053454E534F522053554855204C4D46
:1000560033350074656D7000430001002D4E414E2E
:1000660000494E46000080C00500600159000100AD
:1000760071016000020075016C000000F894EE2723
:10008600ECBBF1E0FBBFEBBFE5BF8DE0A2E0BB2719
:10009600ED938A95E9F780E094E0A0E6ED93019769
:1000A600E9F7EEE6F0E085919591009761F0A5916C
:1000B600B59105901590BF01F00105900D9201973D
:1000C600E1F7FB01F0CFEFE5EDBFE4E0EEBFC0E600
:1000D600D1E00EC0AA93E881E064E7B988E28A9588
:1000E600F1F7369A349BFECF349AE4B1F5B141C1AB
:1000F600E0E8E8B9E0E0E0BFAAD11FD1ADD1AFD1C9
:10010600ABD1A1E00DD1A8E4B0E043D1A8EEB3E0B5
:10011600FBD1E0E0E7BBE8BBE4BBE5BBE1BBE2BB90
:10012600E3BFE2BFEFBDEEBDEDBDECBDE7BDE6BD95
:10013600EBBDEABDE9BDE8BDE2BDE5BDE4BDE3BD9D
:10014600E9BFE5BFEAB9E0E8E8B981D1E0E0E0BFA0
:10015600EDB9E6BFF2D0A0E0BDDF2F0185D1A0E06A
:10016600B0E08AEF93E4D0D2DF01CB01E0E0F0EC1F
:100176006FE774E417D3E0936D01F0936E0160931B
:100186006F017093700168D16AD1E0916D01F091B1
:100196006E0160916F017091700185D3E1E0EA9381
:1001A600A5E6B1E014D058D1A1E0BAD0A0E6B1E0FE
:1001B600E2D0E5E0EA93A1E0B3D0AFEDC8D0AEE57A
:1001C600B0E0E7D0A4EFB1E09FD1C4CFFFCF4FD1CD
:1001D6002497E0E0E883E983EA83EFE3EB837AD3CD
:1001E600EB85FC85EF3FAFEFFA0729F443D1A2E692
:1001F600B0E0E1D078C0EF3FAFE7FA0729F43AD193
:10020600A3E6B0E0D8D06FC0AC85AA2332F437D1CC
:1002160085D13AD13ED1EDE2EC93A885A73010F016
:10022600E6E0E8871885E12F1150E03021F038D15B
:100236003CD141D1F8CF44D117D226D110E0E0E02D
:10024600F0E060E87FE337D13BD1F1D260F028D10E
:1002560040D131D11F5F173228F00CD1A7E6B0E0AC
:10026600AAD041C0F1CF103021F413D1E0E3EC93D2
:100276001DC0E12F1150E030C9F012D116D1A0E017
:10028600B0E080E09FE3F0D1DF01CB01D0D013D105
:1002960017D188D276D10E2FFCD021D101D1E4D04E
:1002A60033D223D10AD3D9D1EFD0E3CFE885E030DA
:1002B600B1F0EFD0EEE2EC93E885E150E887EF5F2E
:1002C60071F013D106D1E0D0DAD05BD10E2FE1D098
:1002D60006D10BD1C9D0F1D2C0D1D6D0EDCFAE81E7
:1002E600BF81E0E0EC93F9D22D960895AA93E2B38C
:1002F600EF70AE2FE881E07FEA2BE2BBFBD0929A4B
:10030600F9D09298F7D035C0AA93A881EFDFE8819B
:10031600E295E883A881EADF88EC8A95F1F729C09F
:10032600AA93E881F0E0EB58FE4FE081A981AE0F79
:10033600EBDF7980688022960895A2E0DFD0ACE0FA
:10034600E3DFA1E0DBD0E0E06E2E7E2E0895AA93D7
:10035600A881AA3011F0791438F07ED06394A62DC6
:10036600DFDFA881AA3029F07394909AA881CCDFA8
:100376009098219608957BD01A93A981BA81ED9120
:10038600A983BA831E2FE03019F0A12FE0DFF5CF45
:100396000FC06DD01A93E981FA813196E983FA8309
:1003A6003197E4911E2FE03019F0A12FD0DFF3CF63
:1003B6001881239608955BD0E991F991A991B99195
:1003C600CD0105900D920020E1F7FC01089570D251
:1003D6007B816A81F981E88177FB770F67FD716020
:1003E600972F9E5781F078F0983190F4AA27BB2773
:1003F600882708948795B795A7959A95D1F7EA2304
:10040600FB23682305C0E8947727EE27FF27662796
:100416006F77769508F4606877F9A991B991899113
:100426009991EA17FB076807790797FB089540D269
:1004360030D2CDDF33D211F465D007C0EEF762D0EB
:10044600A0E0B0E080E89FE308D124960895E0E4B8
:10045600E7B9E4E8E6B90895E0E0EA930895A0E094
:100466005FDFA8E3B0E095CF0AD2C4D00895BA936F
:10047600AA930895EE81FF81FA93EA930895E98598
:10048600FA856B857C850895E987FA876B877C8773
:100496000895AE81BF811196AE83BF8311970895EB
:1004A600AA81BB818C819D810895EDECFCEC6CECFE
:1004B6007DE32AD10895EA83FB836C837D830895C7
:1004C600EA81FB816C817D81A985BA858B859C85B6
:1004D6000895E0E0F0E060E271E416D10895E02FBF
:1004E600E05DEC93E02FF0E00895A985BA858B8551
:1004F6009C85089584E18A95F1F7089505DFA3E0C8
:10050600B0E002C0C1D10895109639F088EB9BE0A7
:100516000197F1F7A8951197C9F7089530976040AC
:10052600704009F070580895552342F4503811F47C
:10053600E0FF04C03196691F791F6BF050E857271A
:1005460011F45F93CFC05F3F31F0660F000C5795F3
:100556006795752F08955F9300200AF0CFC0C8C035
:1005660050E8192E1522880F991F9527550F879544
:1005760050E8072E0522660F771F7527550F6795DA
:100586000895689401C0E8945F93F2DF703818F01C
:100596007F3F08F4A7C056E1571BAAF4519558307F
:1005A6000EF4593030F0EFEFFFEF6FEF7FE777F99A
:1005B6001AC077275523B9F0EE0FFF1F661F771F66
:1005C6005A95D1F710C07727583028F0EF2FF62F1D
:1005D600672F5850F9CF552331F076956795F795E3
:1005E600E7955A95D1F700200AF441D15F91089515
:1005F600689401C0E894309760407040B1F00024E0
:1006060026F0772312F4009432D1172E7EE11120C2
:1006160032F07A95EE0FFF1F661F111CF9CFEF2FF0
:10062600F62F612D5F938ADF5F9108954F93AF0197
:10063600FD01DA01AB01BC01CA01402D012C142ECB
:100646004F910895EA0FFB1F681F0895E095F095F6
:100656006095EF5FFF4F6F4F08955F9381DF90388E
:1006660071F150E8152604C05F937ADF903839F1AE
:10067600703821F1572F591B2BF112F4D7DFFACF1F
:10068600583118F0AA27BB278827583028F0AB2FF7
:10069600B82F88275850F9CF552329F08695B79556
:1006A600A7955A95D9F7502D512572F0CBDF38F41E
:1006B6006795F795E795739513F420C0B7DF3EDF8E
:1006C6005F910895D8F7FBCFEA1BFB0B680B51F03F
:1006D60010F40094BBDF662392F3EE0FFF1F661F34
:1006E6007A95CBF7EE27FF27662777275F91089540
:1006F600EFEFFFEF6FE77FEF5F910895EFEFFFEF0B
:100706006FE77FE75F9108955F932ADF703851F3B3
:10071600903841F301240894791F23F41CF3002038
:100726003AF3ECCF0F921F932F933F934F931127DA
:1007360022279927689FA0018F9F302D410D591FB1
:100746006B9F300D411D591F8E9F27D0BF9F25D00F
:100756006A9F23D0BE9F1DD0AF9F1BD0AE9F110DA9
:10076600291F391F491F591FE32FF42F652F522FB9
:100776004F913F912F911F910F9066232AF0550FAD
:10078600EE1FFF1F661F02C073954BF2CDDE5F9111
:100796000895100D211D391F02C0200D311D491F5E
:1007A600591F08955F93DCDE703821F411200AF496
:1007B6009FCFA4CF903809F495CF01240894970BC6
:1007C6001BF4D4F30020F3CF792F1F932F933F937D
:1007D6004F9311241127222733274427552790E2C8
:1007E600AE17BF078607410730F0AE1BBF0B860B5F
:1007F600410B089401C08894551F221F331F111CFA
:10080600AA1FBB1F881F441F9A9551F7F901612D36
:100816004F913F912F911F91662332F0550FEE1F96
:10082600FF1F661F7A9543F27FDE5F910895992335
:100836009AF0772342F0971748F029F4AE17BF07CE
:10084600860720F031F09894889408959894089437
:1008560008951894889408957723C2F7971798F304
:10086600A9F7EA17FB07680788F399F3ECCFF09529
:1008760060957095E195FF4F6F4F7F4F08956F2FED
:10088600660F660B762F0895E881F9816A817B8170
:100896000895A881B9818A819B810895E883F983A7
:1008A6006A837B8308957A936A93FA93EA93089509
:1008B6009A938A93BA93AA930895182E862F612D38
:1008C600192E972F712D1B2EBF2FF12D1A2EAE2FFD
:1008D600E12D08951A930A930895198108810895C0
:00000001FF
